:030000000200D12A
:0C00D100787FE4F6D8FD75810B02000377
:10006F003C42A98585A9423C3C42A58383A5423CDD
:10007F003C42A98585A9423C3C42A98989A9423CB9
:08008F003C42A99191A9423CF9
:10000300E4F509F50A1200DDE4F508E50825099091
:10001300006F93FDAF081200970508E508C3940825
:1000230040E9AF0A050AEFC3940A40DCE4F50A7419
:0F003300082509F509C3942140CEE4F50980C9D9
:0500DD00C2B6C2B5220D
:100097008F0BAE05AF06120042AF0BA8077480089E
:1000A7008002C313D8FCF4F5807F017E001200BBE9
:0400B7007580FF222F
:02004200AD0708
:10004400E4FB7E007480A803088006CEA2E713CEEA
:1000540013D8F8FFEDF582EF558224FF92B4C2B6AF
:0A006400D2B60BBB08DCD2B5C2B562
:01006E00226F
:1000BB00EF1FAC0670011E4C600B007D027CC7DC91
:0500CB00FEDDFC80EBEE
:0100D000220D
:00000001FF
