:03000000020149B1
:0C014900787FE4F6D8FD7581300201904B
:10046600202020202D20202D20200020203A202072
:040476003A20200008
:09048E0007111E1E0A14080319CF
:1000030012047A7BFF7A0479667D017F011203DC97
:100013007BFF7A0479717D017F021203DC750C0288
:100023007B147A007D017F0112041D7F8D12027DF6
:100033001204B4EFFB7A00750C027D037F011204F6
:100043001D7F8912027D1204B4EFFB7A00750C0246
:100053007D067F0112041D7F8712027D1204B4EF17
:10006300FB7A00750C027D097F0112041D7F851246
:10007300027D1204B4EFFB7A00750C027D017F024E
:1000830012041D7F8312027D1204B4EFFB7A007504
:100093000C027D047F0212041D7F8112027D120473
:1000A300B4EFFB7A00750C027D077F0212041D0278
:0200B30000202B
:09049700071880828486888A8C93
:1003AC00E4FD7F8E1201D5E4F53074112530F8E6AA
:1003BC00FF1204A1AD0774182530F8E6FF1201D521
:1003CC000530E530C3940740E17D807F8E0201D576
:1004A100EF75F00A84C454F0FEEF75F00A84E5F0AC
:0304B1004EFF22D9
:0F04B400EFC4540F75F00AA4FEEF540F2EFF2271
:0201D500A90778
:1001D700C2B5C2B6D2B5E4FB7E007401A80308809D
:1001E70005C333CE33CED8F9FFE9F582EF55822424
:1001F700FF92B4D2B6C2B60BBB08DDE4FB7E007437
:1002070001A803088005C333CE33CED8F9FFEDF537
:1002170082EF558224FF92B4D2B6C2B60BBB08DD7B
:02022700C2B55E
:0102290022B2
:02027D00A907CF
:10027F00E4FDC2B5C2B6D2B5FB7E007401A8030877
:10028F008005C333CE33CED8F9FFE9F582EF55821F
:10029F0024FF92B4C2B6D2B60BBB08DDD2B4E4FBD6
:1002AF00D2B6C2B630B40DA8037401088002C333AE
:0E02BF00D8FC42050BBB08E8C2B5C2B4AF05BF
:0102CD00220E
:0604C300C2A58F80D2A744
:0804C9007F027EEFDEFEDFFC86
:0104D1002208
:0A04D200C2A61204C3C2A70204C9A7
:1003FF00CFCDCFCECCCE1200F47C007D0A1200F40C
:04040F00ED2430FFA9
:0A041300D2A61204C3C2A70204C956
:10043A00AE07BE0104ED148006BE0209ED243F4456
:06044A0080FF1204D22223
:10047A007F381204D27F0C1204D27F061204D27F74
:04048A00010204D295
:0A04DC00AC0312043AAF040204134B
:0603DC008B088A09890A62
:1003E20012043AE4FDAB08AA09A90A8D82758300BA
:0C03F2001200B5FF60061204130D80E934
:0103FE0022DC
:0C0379007F0AEA24FFFDE434FFFC7E0054
:080385008E0D8F0E8C0F8D1000
:10038D007F017E00E4FBEBC39510E50F6480F874EC
:0E039D008098500AAC0DAD0E1200E20B80E805
:0103AB00222F
:04041D008A0A8B0BB1
:1004210012043AAA0CEAD39400400D120379AC0AE3
:08043100AD0B1203FF1A80ED70
:0104390022A0
:1002CE0012043AC3EA64809480400B7F2B1204130D
:1002DE008A248B25800E7F2D120413C3E49BF525F3
:1002EE00E49AF524AA23EAD39400400D120379ACC4
:0902FE0024AD251203FF1A80ED66
:0103070022D3
:040308008A288B298B
:10030C0012043AAA2AEAD3940040297F1012037BE4
:10031C00AC28AD29CFCDCFCECCCE1200F4EF540FFC
:10032C00FEC3940AEE5004243080022437FF1204DA
:04033C00131A80D13F
:01034000229A
:040341008A2D8B2E48
:1003450012043AAA2FEAD394004028EA24FFFDE4D8
:1003550034FFFC7F027E00120385AC2DAD2ECFCD80
:10036500CFCECCCE1200F4EF54012430FF1204138B
:030375001A80D219
:010378002262
:10022A00EF1460150470267F801204D2E4FD7F204B
:10023A001204130DBD10F780347FC01204D2E4FDFE
:10024A007F201204130DBD10F77FC080227F801219
:10025A0004D2E4FD7F201204130DBD10F77FC012F3
:10026A0004D2E4FD7F201204130DBD10F77F801223
:02027A0004D2AC
:01027C00225F
:10045000EF1FAC0670011E4C600B007D027CC7DCF8
:05046000FEDDFC80EB55
:010465002274
:10015500020003E493A3F8E493A34003F68001F2BD
:1001650008DFF48029E493A3F85407240CC8C333AB
:10017500C4540F4420C8834004F456800146F6DF7A
:10018500E4800B010204081020408090048EE47E78
:10019500019360BCA3FF543F30E509541FFEE4936F
:1001A500A360010ECF54C025E060A840B8E493A336
:1001B500FAE493A3F8E493A3C8C582C8CAC583CA61
:1001C500F0A3C8C582C8CAC583CADFE9DEE780BE19
:0104A000005B
:1000B500BB010CE58229F582E5833AF583E0225000
:1000C50006E92582F8E622BBFE06E92582F8E2224A
:0D00D500E58229F582E5833AF583E4932264
:1000E200EF8DF0A4A8F0CF8CF0A428CE8DF0A42E32
:0200F200FE22EC
:1000F400BC000BBE0029EF8DF084FFADF022E4CCF0
:10010400F875F008EF2FFFEE33FEEC33FCEE9DECB8
:10011400984005FCEE9DFE0FD5F0E9E4CEFD22EDFE
:10012400F8F5F0EE8420D21CFEADF075F008EF2F48
:10013400FFED33FD4007985006D5F0F222C398FD39
:050144000FD5F0EA22D6
:00000001FF
