:0300000002016E8C
:0C016E00787FE4F6D8FD758109020130AD
:1000EF00E4FDFC438901758CFC758A66D28C308DDA
:1000FF000D0DBD00010CC28D758CFC758A66C3EDAC
:05010F009FEC9E40E999
:0101140022C8
:100130001200031200C27FF47E011200EF1200923F
:090140007FF47E011200EF80EA59
:0C017A00C2957F327E001200EFD2952269
:0A018600C2A3D294120149D2A322B1
:0301610024B0FFC8
:0A016400C2A3C294120149D2A322E3
:100115008F08ED120161E508540FFF120164E5082F
:0B01250054F0C4540F4410FF020164AA
:10000300D2A3D2A112017A7FAE120164E4FF1201DE
:10001300647F101201647F401201647FA1120164A6
:100023007FC81201647FA61201647FA81201647F56
:100033003F1201647FD3120164E4FF1201647FD590
:100043001201647F801201647FD91201647FF1126F
:1000530001647FDA1201647F121201647FDB1201F3
:1000630064E4FF1201647F201201647F02120164C1
:100073007F8D1201647F141201647FA41201647FD7
:0F008300A61201647FAF120164E4FDFF020115B4
:1000C200E4F508E5081201617F011201647F101254
:1000D2000164E4F509E4FF1201860509E509C39408
:0C00E2008040F20508E508C3940840D7F0
:0100EE0022EF
:10009200E4F508E50824B0FF1201647F011201644F
:1000A2007F10120164E4F5097FFF1201860509E55C
:0F00B20009C3948040F20508E508C3940840D4C0
:0100C100221C
:10014900E4FEA806EF088002C333D8FC3392A0C2AC
:07015900A1D2A10EBE08EBCC
:01016000227C
:00000001FF
