:1002F900007D027CC7DCFEDDFCEF1FAC0670011E31
:030309004C70ED48
:01030C0022CE
:0B033C00B2A77FE87E031202F980F5F3
:06032100C2A58F80D2A7E7
:080327007F027EC7DEFEDFFC51
:01032F0022AB
:0A034700C2A6120321C2A702032779
:10027B00CFCDCFCECCCE1200547C007D0A120054D1
:04028B00ED4430FF0F
:0A028F00D2A6120321C2A702032722
:10030D007F381203477F0C1203477F061203477F86
:04031D00010203478F
:05035B007F01020347D1
:1002B300EF64016003BF0210EF1475F040A4FFED7B
:0902C300142F4480FF12034722AE
:0A035100AC031202B3AF0402028FE6
:060215008B2B8A2C892DC1
:10021B001202B3E4FDAB2BAA2CA92D8D82758300A2
:0C022B00120003FF600612028F0D80E934
:0102370022A4
:0402CC008F2EA905C3
:1002D0007F017E00AD0119ED6009AD2E7C0012009A
:0302E0004280F168
:0102E30022F8
:040238008A1D8B1E72
:10023C001202B3AB1FEBD394004012EB14FD7F0AF8
:0D024C001202CCAC1DAD1E12027B1B80E81F
:010259002282
:100130001202B3C3EA6480948050107F2D12028FA4
:10014000C3E49BF51AE49AF51980097F2B12028FFC
:100150008A198B1AAB18EBD394004012EB14FD7F75
:0E0160000A1202CCAC19AD1A12027B1B80E809
:01016E00226E
:0401AB008A238B24F4
:1001AF001202B3AB25EBD39400402AEB14FF7E0071
:1001BF007401A807088005C333CE33CED8F9FDAC40
:1001CF0006AE23AF241200A97C007D021200A912F3
:0501DF00028B1B80D023
:0101E40022F8
:10016F001202B3AD2AEDD394004030ED1425E025F3
:10017F00E0FFAE02EBA807088006CEA2E713CE136E
:10018F00D8F8540FFCD39409EC50052430FC8003AD
:0B019F002437FCAF0412028F1D80CA41
:0101AA002232
:10029900D293C2937F147E001202F9D293E4FF3005
:0902A90093070FEFD3942840F6EF
:0102B2002229
:1001E50020932BE4FF2093070FEFD3945040F6EFB5
:1001F500D39450400122309315E4FF3093070FEF5D
:0F020500D3945040F6EFD39450400122D322C33C
:0102140022C7
:10025A00C200E4FF2093070FEFD3943240F63093A5
:10026A000D7F0BDFFE309306D2007F0FDFFEA20068
:01027A002261
:1002E400E4FEFDEE25E0FE12025AE43342060DBDA3
:0402F40008F1AF0658
:0102F80022E3
:0600DF008B088A09890A62
:1000E500E4F5131202991201E5503E1202E48F0E57
:1000F5001202E48F0F1202E48F101202E48F111224
:1001050002E48F12E50E250F25102511F513B51202
:1001150018AB08AA09A90AE510120030AB0BAA0C06
:0A012500A90DE50E120030D322C32D
:01012F0022AD
:03000000020330C8
:0C033000787FE4F6D8FD75812E02033CB6
:10000300BB010CE58229F582E5833AF583E02250B2
:1000130006E92582F8E622BBFE06E92582F8E222FC
:0D002300E58229F582E5833AF583E4932216
:10003000BB010689828A83F0225002F722BBFE01AF
:02004000F322A9
:10004200EF8DF0A4A8F0CF8CF0A428CE8DF0A42ED2
:02005200FE228C
:10005400BC000BBE0029EF8DF084FFADF022E4CC90
:10006400F875F008EF2FFFEE33FEEC33FCEE9DEC59
:10007400984005FCEE9DFE0FD5F0E9E4CEFD22ED9F
:10008400F8F5F0EE8420D21CFEADF075F008EF2FE9
:10009400FFED33FD4007985006D5F0F222C398FDDA
:0500A4000FD5F0EA2277
:1000A900C2D5EC30E709B2D5E4C39DFDE49CFCEE72
:1000B90030E715B2D5E4C39FFFE49EFE120054C396
:1000C900E49DFDE49CFC800312005430D507C3E491
:0600D9009FFFE49EFE22E1
:00000001FF
