:030000000201E911
:0C01E900787FE4F6D8FD7581200202301A
:10000E00F23DF302F3BDF46EF514F5B1F645F6D1FB
:10001E00F755F7D1F847F8B5F91EF981F9DFFA3738
:10002E00FA8AFAD8FB23FB68FBAAFBE9FC23FC5BEC
:10003E00FC8FFCC1FCEFFD1BFD45FD6CFD91FDB47D
:10004E00FDD5FDF4FE12FE2D00001004150415045E
:10005E00130410060E040C060E040C0417041504EB
:10006E00100410040C040C041704150610040E06DC
:10007E000C041704130415042404150410041004AE
:10008E00100410060E040C060E040C0417041504BE
:10009E002404150415041504150415061304100480
:1000AE00130413041104100424041004150415047D
:1000BE00130410060E040C060E040C04170415048B
:1000CE00100410040C040C041704150610040E067C
:1000DE000C04170413041504240410040C040C045B
:1000EE001704150610040E060C0417041304150449
:0400FE002404FF00D7
:05000300010A00C1002C
:10031D005389F0438901E4F58AF58CD2A9D2AFC295
:02032D008C2220
:10030800EF1FAC0670011E4C600A7D027CDCDCFE2F
:04031800DDFC80EC9C
:01031C0022BE
:100102007BFF7A00795812031DD2A9D2AF20B13FEA
:100112007F147E0012030820B135B200300006C2FF
:100122008CC2A580271202C2FF6424601FEFF46014
:100132001BE50A25E0240EF582E43400F583E493FE
:10014200FC740193FDECF58C8D8AD28C30B1FD20CC
:1001520000BB1202C2FFF4606DEFB42406C28CC26F
:10016200A5801C8F0AEF25E0240EF582E43400F509
:1001720083E493FC740193FDECF58C8D8AD28C9010
:1001820000011202DB543F75F070A485F008F509F6
:10019200900000C3E5829509E5839508500A7F0126
:1001A2007E00120308A380EB9000011202DB20E71D
:1001B2000BC28CC2A57F057E00120308740229F9C6
:1001C200E43AFA02010FC28CC2A520B1FD7F147E6F
:1001D2000012030820B1F37BFF7A007958C2003085
:0701E200B10302010F80F8D8
:03000B0002027579
:10027500C0E0C083C082C0D075D000C004C005E511
:100285000A25E0240EF582E43400F58374019370A9
:1002950002E493601BE50A25E0240EF582E43400B0
:1002A500F583E493FC740193FDECF58C8D8AB2A57E
:0D02B500D005D004D0D0D082D083D0E0326C
:1001F500020102E493A3F8E493A34003F68001F21D
:1002050008DFF48029E493A3F85407240CC8C3330A
:10021500C4540F4420C8834004F456800146F6DFD9
:10022500E4800B0102040810204080900003E47E66
:10023500019360BCA3FF543F30E509541FFEE493CE
:10024500A360010ECF54C025E060A840B8E493A395
:10025500FAE493A3F8E493A3C8C582C8CAC583CAC0
:10026500F0A3C8C582C8CAC583CADFE9DEE780BE78
:0100080000F7
:1002C200BB010689828A83E0225002E722BBFE023A
:0902D200E32289828A83E493226D
:1002DB00BB010CE58229F582E5833AF583E02250D8
:1002EB0006E92582F8E622BBFE06E92582F8E22222
:0D02FB00E58229F582E5833AF583E493223C
:00000001FF
