:0300000002037385
:0C037300787FE4F6D8FD75814F0203BAD4
:10092D00EF1FAC0670011E4C600B007D027CC7DC16
:05093D00FEDDFC80EB73
:010942002292
:0807D800063E8C8886848280B5
:10084100E4FD7F8E1205FDE4F53574232535F8E6C8
:10085100FF120982AD07743E2535F8E6FF1205FD4A
:100861000535E535C3940640E17D807F8E0205FDA7
:10098200EF75F00A84C454F0FEEF75F00A84E5F0C6
:030992004EFF22F3
:030995001206A5A2
:0F099800EFC4540F75F00AA4FEEF540F2EFF2288
:0205FD00A9074C
:1005FF00C2B5C2B6D2B5E4FB7E007401A803088071
:10060F0005C333CE33CED8F9FFE9F582EF558224F7
:10061F00FF92B4D2B6C2B60BBB08DDE4FB7E00740A
:10062F0001A803088005C333CE33CED8F9FFEDF50B
:10063F0082EF558224FF92B4D2B6C2B60BBB08DD4F
:02064F00C2B532
:010651002286
:0206A500A907A3
:1006A700E4FDC2B5C2B6D2B5FB7E007401A803084B
:1006B7008005C333CE33CED8F9FFE9F582EF5582F3
:1006C70024FF92B4C2B6D2B60BBB08DDD2B4E4FBAA
:1006D700D2B6C2B630B40DA8037401088002C33382
:0E06E700D8FC42050BBB08E8C2B5C2B4AF0593
:0106F50022E2
:1005A700E4FD7F8E1205FDAF28120982AD077F801B
:1005B7001205FDAF27120982AD077F821205FDAF35
:1005C70026120982AD077F841205FDAF2512098225
:1005D700AD077F861205FDAF24120982AD077F881C
:1005E7001205FDAF23120982AD077F8C1205FD7D31
:0605F700807F8E0205FD6D
:1007A1007F811209958F287F831209958F277F8575
:1007B1001206A51209988F267F871206A51209989D
:1007C1008F257F891206A51209988F247F8D120625
:0707D100A51209988F2322F5
:0609A700C2A58F80D2A75B
:0809AD007F027EEFDEFEDFFC9D
:0109B500221F
:0A09B600C2A61209A7C2A70209ADEC
:1008DB00CFCDCFCECCCE12031E7C007D0A12031ED1
:0408EB00ED2430FFC9
:0A08EF00D2A61209A7C2A70209ADA4
:10094300AE07BE0104ED148006BE0209ED243F4448
:0609530080FF1209B6222C
:10096E007F381209B67F0C1209B67F061209B67FC0
:04097E00010209B6B3
:0A09C000AC03120943AF040208EF74
:060899008B358A36893719
:10089F00120943E4FDAB35AA36A9378D8275830063
:0C08AF001202DFFF60061208EF0D80E966
:0108BB00221A
:0C080E007F0AEA24FFFDE434FFFC7E00BA
:08081A008E3A8F3B8C3C8D3DB2
:100822007F017E00E4FBEBC3953DE53C6480F874F8
:0E0832008098500AAC3AAD3B12030C0B80E8E4
:010840002295
:0408F9008A378B3877
:1008FD00120943AA39EAD39400400D12080EAC3701
:08090D00AD381208DB1A80ED81
:0109150022BF
:1006F600120943C3EA64809480400B7F2B1208EFF3
:100706008A1D8B1E800E7F2D1208EFC3E49BF51EFB
:10071600E49AF51DAA1CEAD39400400D12080EAC0B
:090726001DAD1E1208DB1A80ED66
:01072F0022A7
:040730008A468B4723
:10073400120943AA48EAD3940040297F10120810F2
:10074400AC46AD47CFCDCFCECCCE12031EEF540F67
:10075400FEC3940AEE5004243080022437FF1208AA
:04076400EF1A80D137
:01076800226E
:040769008A4B8B4CE0
:10076D00120943AA4DEAD394004028EA24FFFDE480
:10077D0034FFFC7F027E0012081AAC4BAD4CCFCD7E
:10078D00CFCECCCE12031EEF54012430FF1208EF52
:03079D001A80D2ED
:0107A0002236
:10065200EF1460150470267F801209B6E4FD7F2036
:100662001208EF0DBD10F780347FC01209B6E4FD09
:100672007F201208EF0DBD10F77FC080227F80120D
:1006820009B6E4FD7F201208EF0DBD10F77FC012FE
:1006920009B6E4FD7F201208EF0DBD10F77F80122E
:0206A20009B697
:0106A4002233
:1008BC0020202D20202D20200020203A20203A20FE
:0F08CC0020004544495400202020200020200017
:0F07E00006231908140A1E1E012A00C100C101B8
:1004E50012096E1208411209161205A77BFF7A0838
:1004F50079BC7D017F011208997BFF7A0879C57D5A
:10050500017F021208991205488F2AE52A640270B4
:1005150025B2007BFF3000107A0879CE7D0D7F0172
:10052500120899E4F529800E7A0879D37D0D7F01AB
:100535001208991205A730000512000E80C8120492
:030545007C80C3F4
:10047C001207A1E523FB3395E0FA7539027D017F64
:10048C00011208F9E524FB3395E0FA7539027D0475
:10049C007F011208F9E525FB3395E0FA7539027DE9
:1004AC00077F011208F9E526FB3395E0FA7539024E
:1004BC007D017F021208F9E527FB3395E0FA7539C7
:1004CC00027D047F021208F9E528FB3395E0FA75EA
:0904DC0039027D077F020208F9D4
:10000E00E52A640160030200CD74232529F806D386
:10001E00E523648094E34003E4F523D3E524648070
:10002E00948C4003752401E52414B40C00506C909C
:10003E00004B75F003A4C58325F0C5837302006FD2
:10004E0002008502006F02007A02006F02007A023F
:10005E00006F02006F02007A02006F02007A020047
:10006E006FD3E5256480949F4031802CD3E52564C1
:10007E0080949E40268021E52375F0041202BDAFC8
:10008E00F0EF700BD3E5256480949D400E8009D36C
:10009E00E5256480949C4003752501D3E526648094
:1000AE0094974003E4F526D3E527648094BB400380
:1000BE00E4F527D3E528648094BB4003E4F528E5F6
:1000CE002A640360030201BF74232529F816C3E5D1
:1000DE0023648094805003752363C3E52464809465
:1000EE0081500375240CE52414B40C004003020166
:1000FE009B90010D75F003A4C58325F0C583730293
:10010E00013102015F020131020148020131020197
:10011E004802013102013102014802013102014857
:10012E00020131C3E52564809481500375251FD3E8
:10013E00E5256480949F40558050C3E525648094E6
:10014E0081500375251ED3E5256480949E403E8024
:10015E0039E52375F0041202BDAFF0EF7017C3E559
:10016E002564809481500375251DD3E52564809404
:10017E009D401A8015C3E525648094815003752532
:10018E001CD3E5256480949C4003752501C3E526A8
:10019E00648094805003752617C3E527648094808D
:1001AE00500375273BC3E52864809480500375285F
:1001BE003BE52AB4040B0529E52975F0068485F084
:1001CE0029E529701230010F7BFF7A0879D87D015D
:1001DE007F011208998011E523FB3395E0FA7539FA
:1001EE00027D017F011208F9E529B4011230010FD9
:1001FE007BFF7A0879D87D047F011208998011E57A
:10020E0024FB3395E0FA7539027D047F011208F95B
:10021E00E529B4021230010F7BFF7A0879D87D07E9
:10022E007F011208998011E525FB3395E0FA7539A7
:10023E00027D077F011208F9E529B4031230010F80
:10024E007BFF7A0879D87D017F021208998011E52B
:10025E0026FB3395E0FA7539027D017F021208F90B
:10026E00E529B4041230010F7BFF7A0879D87D049A
:10027E007F021208998011E527FB3395E0FA753954
:10028E00027D047F021208F9E529B4051030010D34
:10029E007BFF7A0879D87D077F02020899E528FB53
:0F02AE003395E0FA7539027D077F021208F922B5
:03000B0002087177
:04087100C0E0C0D053
:10087500758A18758CFC0522E52270020521C39442
:0F0885002CE52194014008752100752200B20175
:05089400D0D0D0E032DD
:10054800E4F5357E007401A835088005C333CE3341
:10055800CED8F9FFADB0EF5D70397F05FE12092DD9
:100568007E007401A835088005C333CE33CED8F990
:10057800FFADB0EF5D701C7E007401A835088005E2
:10058800C333CE33CED8F9FFADB0EF5D60E9E535C2
:0E05980004FF220535E535C3940440A77F001B
:0105A6002232
:0C07EF000A2B3F065B4F666F7D077F679B
:10095900EFD39407500EEF25E025E0F5A0742B2D79
:05096900F8E6F5802214
:100916005389F0438901758A18758CFCC28DD28C77
:07092600D2A9D2AFC2B92231
:1007FB001008010407100205080F0306090E0A0B67
:02080B000C0DD2
:1003FF00E4F54E7590FFC37403954EFFF874010832
:10040F008002C333D8FCF45290E4F54FE54F240437
:10041F00FF7E007401A807088005C333CE33CED802
:10042F00F9FFAD90EF5D70307F05FE12092DE54F9E
:10043F002404FF7E007401A807088005C333CE3360
:10044F00CED8F9FFAD90EF5D60E4E54E25E025E0F5
:10045F002408254FF8E6FF22054FE54FC3940440CB
:0C046F00AB054EE54EC3940440897F00AD
:01047B00225E
:10037F000204E5E493A3F8E493A34003F68001F2AB
:10038F0008DFF48029E493A3F85407240CC8C3337F
:10039F00C4540F4420C8834004F456800146F6DF4E
:1003AF00E4800B01020408102040809007D8E47EFF
:1003BF00019360BCA3FF543F30E509541FFEE49343
:1003CF00A360010ECF54C025E060A840B8E493A30A
:1003DF00FAE493A3F8E493A3C8C582C8CAC583CA35
:1003EF00F0A3C8C582C8CAC583CADFE9DEE780BEED
:01080D0000EA
:1002BD00C2D530F707B2D563F0FF05F030E70CB2C9
:1002CD00D5F4048463F0FF05F080018430D502F489
:0202DD000422F9
:1002DF00BB010CE58229F582E5833AF583E02250D4
:1002EF0006E92582F8E622BBFE06E92582F8E2221E
:0D02FF00E58229F582E5833AF583E4932238
:10030C00EF8DF0A4A8F0CF8CF0A428CE8DF0A42E05
:02031C00FE22BF
:10031E00BC000BBE0029EF8DF084FFADF022E4CCC3
:10032E00F875F008EF2FFFEE33FEEC33FCEE9DEC8C
:10033E00984005FCEE9DFE0FD5F0E9E4CEFD22EDD2
:10034E00F8F5F0EE8420D21CFEADF075F008EF2F1C
:10035E00FFED33FD4007985006D5F0F222C398FD0D
:05036E000FD5F0EA22AA
:00000001FF
