:030000000201708A
:0C017000787FE4F6D8FD7581260201B707
:0C053E0054696D657230205465737400C0
:0D053000011A00011B00011C000218000050
:1001FC0012050D7F107E2712027D7BFF7A05793E5A
:10020C007D017F01120479E51AC3943C4005E4F5A5
:10021C001A051BE51BC3943C4005E4F51B051CE5C6
:10022C001CC394184003E4F51CE51CFB7A00750C08
:10023C00027D017F021204DA7B3A7D037F021205F4
:10024C0054E51BFB7A00750C027D047F021204DA64
:10025C007B3A7D067F02120554E51AFB7A00750C79
:10026C00027D077F021204DA7F647E0012049C80F8
:01027C0096EB
:03000B000204519B
:04045100C0E0C0D077
:10045500758CD8758AF00519E51970020518C394CD
:0F04650064E51894004008051A75180075190011
:05047400D0D0D0E03201
:10049C00E4FDFCC3ED9FEC9E5015E4FBFA0BBB0096
:0F04AC00010AEB64704A70F50DBD00010C80E48D
:0104BB00221E
:06052100C2A58F80D2A7E5
:080527007F027EEFDEFEDFFC27
:01052F0022A9
:0A054A00C2A6120521C2A702052770
:1004BC00CFCDCFCECCCE12004D7C007D0A12004D9C
:0404CC00ED2430FFEC
:0A04D000D2A6120521C2A7020527DB
:1004F700AE07BE0104ED148006BE0209ED243F4499
:0605070080FF12054A22EC
:10050D007F3812054A7F0C12054A7F0612054A7F75
:04051D000102054A88
:0A055400AC031204F7AF040204D058
:060479008B088A09890AC4
:10047F001204F7E4FDAB08AA09A90A8D827583005F
:0C048F0012000EFF60061204D00D80E980
:01049B00223E
:0C041E007F0AEA24FFFDE434FFFC7E00AE
:08042A008E0D8F0E8C0F8D105A
:100432007F017E00E4FBEBC39510E50F6480F87446
:0E0442008098500AAC0DAD0E12003B0B80E806
:010450002289
:0404DA008A0A8B0BF4
:1004DE001204F7AA0CEAD39400400D12041EAC0AC3
:0804EE00AD0B1204BC1A80EDF5
:0104F60022E3
:100373001204F7C3EA64809480400B7F2B1204D0ED
:100383008A168B17800E7F2D1204D0C3E49BF517BA
:10039300E49AF516AA15EAD39400400D12041EAC94
:0903A30016AD171204BC1A80ED1E
:0103AC00222E
:0403AD008A1F8B20F8
:1003B1001204F7AA21EAD3940040297F10120420E5
:1003C100AC1FAD20CFCDCFCECCCE12004DEF540F10
:1003D100FEC3940AEE5004243080022437FF120435
:0403E100D01A80D1DD
:0103E50022F5
:0403E6008A248B25B5
:1003EA001204F7AA26EAD394004028EA24FFFDE47F
:1003FA0034FFFC7F027E0012042AAC24AD25CFCD47
:10040A00CFCECCCE12004DEF54012430FF1204D0CF
:03041A001A80D273
:01041D0022BC
:1002DC00EF1460150470267F8012054AE4FD7F2020
:1002EC001204D00DBD10F780347FC012054AE4FD16
:1002FC007F201204D00DBD10F77FC080227F8012AA
:10030C00054AE4FD7F201204D00DBD10F77FC0120A
:10031C00054AE4FD7F201204D00DBD10F77F80123A
:02032C00054A80
:01032E0022AC
:10027D008E088F09E58954F04401F589C28DD28C21
:10028D00AE08AF09AB07AA06E4C39BFFE49AFE7460
:10029D00019400FDE49400FCE4FB7A01F9F81203EB
:1002AD002F8F8CAE08AF09AB07AA06E4C39BFFE402
:1002BD009AFE74019400FDE49400FCE4FB7A01F9CC
:0F02CD00F812032FAF038F8AD2A9D2AFC2B92282
:10017C000201FCE493A3F8E493A34003F68001F29C
:10018C0008DFF48029E493A3F85407240CC8C33384
:10019C00C4540F4420C8834004F456800146F6DF53
:1001AC00E4800B0102040810204080900530E47EAE
:1001BC00019360BCA3FF543F30E509541FFEE49348
:1001CC00A360010ECF54C025E060A840B8E493A30F
:1001DC00FAE493A3F8E493A3C8C582C8CAC583CA3A
:1001EC00F0A3C8C582C8CAC583CADFE9DEE780BEF2
:01053D0000BD
:10000E00BB010CE58229F582E5833AF583E02250A7
:10001E0006E92582F8E622BBFE06E92582F8E222F1
:0D002E00E58229F582E5833AF583E493220B
:10003B00EF8DF0A4A8F0CF8CF0A428CE8DF0A42ED9
:02004B00FE2293
:10004D00BC000BBE0029EF8DF084FFADF022E4CC97
:10005D00F875F008EF2FFFEE33FEEC33FCEE9DEC60
:10006D00984005FCEE9DFE0FD5F0E9E4CEFD22EDA6
:10007D00F8F5F0EE8420D21CFEADF075F008EF2FF0
:10008D00FFED33FD4007985006D5F0F222C398FDE1
:05009D000FD5F0EA227E
:10032F00C2D5E830E70FB2D5E4C39BFBE49AFAE4F9
:10033F0099F9E498F8EC30E717B2D512036512007B
:10034F00DEE4C39BFBE49AFAE499F9E498F880039E
:10035F001200DE30D50DE4C39FFFE49EFEE49DFD49
:04036F00E49CFC22EC
:1000A20075F008758200EF2FFFEE33FECD33CDCC15
:1000B20033CCC58233C5829BED9AEC99E582984098
:1000C2000CF582EE9BFEED9AFDEC99FC0FD5F0D675
:1000D200E4CEFBE4CDFAE4CCF9A88222B800C1B99F
:1000E2000059BA002DEC8BF084CFCECDFCE5F0CBDD
:1000F200F97818EF2FFFEE33FEED33FDEC33FCEB16
:1001020033FB10D703994004EB99FB0FD8E5E4F9D0
:10011200FA227818EF2FFFEE33FEED33FDEC33FCBD
:10012200C933C910D7059BE99A4007EC9BFCE99AB1
:10013200F90FD8E0E4C9FAE4CCFB2275F010EF2FF6
:10014200FFEE33FEED33FDCC33CCC833C810D707F6
:100152009BEC9AE899400AED9BFDEC9AFCE899F831
:0E0162000FD5F0DAE4CDFBE4CCFAE4C8F922C4
:00000001FF
