:0606ED004655434B3A00A4
:100498001206B67FE87E0312065A1206707BFF7AB0
:1004A8000679ED7D017F011205CF1206B61205818E
:1004B8008F138E128D118C10E4FFFEFDFCAB13AA76
:1004C80012A911A8101201A9501E7B2D7D017F02CF
:1004D8001206E3AF13AE12AD11AC101202228F1345
:1004E8008E128D118C1080097B2B7D017F021206E4
:1004F800E3AF13AE12AD11AC10120271AB07750B5E
:10050800037D027F021205467B2E7D057F021206BF
:10051800E37F007E407D1C7C46AB13AA12A911A87C
:1005280010120003120271E47B107A27F9F8120303
:0E053800A3750B047D067F021205460204B275
:10060F00D2B7C2B77FE3DFFED2B77F19DFFEA2B743
:09061F00E433FE7FF7DFFEAF06B5
:0106280022AF
:10064200C2B77F02DFFED2B77F02DFFEA2B7E4337A
:07065200FE7F18DFFEAF067A
:01065900227E
:10068400C2B77E04DEFEEF24FF92B77E18DEFED2F0
:01069400B7AE
:010695002242
:02062900AD071B
:10062B00E4FCA8047401088002C333D8FC5DFF12FC
:06063B0006840CBC08EC73
:010641002296
:1005F200E4FDFC120642EF600DA8047401088002BB
:0C060200C333D8FC42050CBC08E9AF056E
:01060E0022C9
:0D06B60012060F7FCC1206297F4402062990
:1005810012060F7FCC1206297FBE1206291205F230
:100591008F081205F2EFAD08FCEC120238E4FBFA09
:0705A1007980784102010C92
:06069600C2A58F80D2A76F
:09069C00007F027EC7DEFEDFFCD8
:0106A5002232
:100670007F381206CF7F0C1206CF7F061206CF7F7F
:04068000010206CF9E
:0A06CF00C2A6120696C2A702069CFE
:0A06D900D2A6120696C2A702069CE4
:1006A600EDBF0103148002243F4480FF1206CF22CF
:0A06E300AC031206A6AF040206D90C
:0605CF008B088A09890A6D
:1005D5001206A6E4FDAB08AA09A90A8D8275830057
:0C05E5001202F2FF60061206D90D80E938
:0105F10022E7
:0805A8008E0C8F0D8C0E8D0FDF
:1005B0007F017E00E4FBEBC3950FE50E6480F874C9
:0E05C0008098500AAC0CAD0D12031F0B80E8A2
:0105CE00220A
:020546008B0A1E
:100548001206A6AA0BEAD39400402DEA24FFFDE484
:1005580034FFFC7F0A7E001205A8AD0A7C00CFCDCF
:10056800CFCECCCE1203317C007D0A120331ED24AC
:0805780030FF1206D91A80CDF4
:010580002258
:10065A00EF1FAC0670011E4C600B007D027CC7DCEC
:05066A00FEDDFC80EB49
:01066F002268
:10000300EC4D6011E8497017ED33EC3304600DE4F7
:10001300FCFFFEFD22E933E8330470F80202DD122F
:1000230002A858046009E4CC248150062850090230
:1000330002E72840030202E4C0E0EB4A7044B980BF
:1000430006D0E0FB0202D3EF4E701CBD8008EBFF2D
:10005300EAFEE9FD80EBE98DF0A4FEE5F00200EC99
:10006300E9CDF9EAFEEBFFEF89F0A4FCE5F0CE89D8
:10007300F0A42EFFE435F0CD89F0A42DFEE435F095
:100083008067EF4E7005BD80D780C3EF8BF0A4ACC3
:10009300F0EE8BF0A42CFCE435F0F8EF8AF0A42CFE
:1000A300E5F038FCE433CB8DF0A42CFCE5F03BF811
:1000B300EE8AF0A42CFCE5F038F8E433CF89F0A401
:1000C3002CFCE5F038CF3400CE89F0A42FFFE5F007
:1000D3003EFEE433C98DF0A42EFEE5F039CD8AF05F
:1000E300A42FFFE5F03EFEE43DFD33D0E0FB5007D7
:1000F3000BBB000F0202E7EC2CFCEF33FFEE33FEE9
:06010300ED33FD0202BF16
:100109000202E7EC5D046005E8590470030202DDB0
:100119001202A8580460F6EC4860F2EC7004FDFE87
:10012900FF22C860DB2481C85009C39860025006C9
:100139000202E49850CAF582E9294B4A7005AB825C
:100149000202D375F0007C1A7880C3EF9BEE9AED1A
:1001590099400DC3EF9BFFEE9AFEED99FDE842F041
:10016900DC23ACF0D0E0FFD0E0FED0E0FDAB822094
:10017900E7101BEB60BAEC2CFCEF33FFEE33FEED1E
:1001890033FD0202BFE803F830E705C0F075F0005F
:10019900EF2FFFEE33FEED33FD40B830E7C280AA02
:1001A90074F8CC6480CCC86480C8F58204604FC3FD
:1001B900EB9FF5F0EA9E42F0E99D42F0E89C45F09C
:1001C900603C501DE5825FFFE582D313CB5BCBF426
:1001D9002B5582FB50280ABA002409B9002008804F
:1001E9001DE5825BFBE582D313CF5FCFF4C3132FE9
:1001F9005582FF50090EBE00050DBD00010CC3EB71
:100209009FF5F0EA9E42F0E99D42F0E89C45F060D6
:0902190007CC4820E701B3EC22F8
:10022200ED33EC33600A047003BD8004ECB2E7FCEA
:0102320022A9
:1002330075F020800E75F010800575F0087D007E46
:10024300007F003392D530D503120435EC334010D0
:10025300EF33FFEE33FEED33FDEC33FCD5F0ED224F
:0E026300E5F0247EA2D513CC92E7CDCEFF228B
:10027100EDD2E7CD33EC3392D524814006E4FFFE85
:10028100FDFC22FCE4CFCECDCC24E0501174FF80E4
:10029100EDC3CC13CCCD13CDCE13CECF13CF047081
:0702A100F030D5DE02043548
:1002A800E9D2E7C933E833F892D5EDD2E7CD33EC9C
:0702B80033FC5002B2D52215
:1002BF00EC30E7100FBF000C0EBE00080DBD0004A0
:1002CF000BEB6014A2D5EB13FCED92E7FD2274FF4C
:1002DF00FCFDFEFF22E480F8A2D574FF13FC7D80A5
:0302EF00E480EFB9
:030000000206C332
:0C06C300787FE4F6D8FD758113020498DE
:1002F200BB010CE58229F582E5833AF583E02250C1
:1003020006E92582F8E622BBFE06E92582F8E2220A
:0D031200E58229F582E5833AF583E4932224
:10031F00EF8DF0A4A8F0CF8CF0A428CE8DF0A42EF2
:02032F00FE22AC
:10033100C2D5EC30E709B2D5E4C39DFDE49CFCEEE7
:1003410030E715B2D5E4C39FFFE49EFE120443C318
:10035100E49DFDE49CFC800312044330D507C3E413
:060361009FFFE49EFE2256
:1003670075F008758200EF2FFFEE33FECD33CDCC4D
:1003770033CCC58233C5829BED9AEC99E5829840D0
:100387000CF582EE9BFEED9AFDEC99FC0FD5F0D6AD
:10039700E4CEFBE4CDFAE4CCF9A88222B800C1B9D7
:1003A7000059BA002DEC8BF084CFCECDFCE5F0CB15
:1003B700F97818EF2FFFEE33FEED33FDEC33FCEB4E
:1003C70033FB10D703994004EB99FB0FD8E5E4F909
:1003D700FA227818EF2FFFEE33FEED33FDEC33FCF6
:1003E700C933C910D7059BE99A4007EC9BFCE99AEA
:1003F700F90FD8E0E4C9FAE4CCFB2275F010EF2F2F
:10040700FFEE33FEED33FDCC33CCC833C810D7072E
:100417009BEC9AE899400AED9BFDEC9AFCE899F869
:0E0427000FD5F0DAE4CDFBE4CCFAE4C8F922FC
:0E043500C3E49FFFE49EFEE49DFDE49CFC22D8
:10044300BC000BBE0029EF8DF084FFADF022E4CC9D
:10045300F875F008EF2FFFEE33FEEC33FCEE9DEC66
:10046300984005FCEE9DFE0FD5F0E9E4CEFD22EDAC
:10047300F8F5F0EE8420D21CFEADF075F008EF2FF6
:10048300FFED33FD4007985006D5F0F222C398FDE7
:050493000FD5F0EA2284
:00000001FF
