:030000000200DC1F
:0C00DC00787FE4F6D8FD75812002012336
:06000300C100020800002C
:10027B007F107E2712016875A0FE20B102D20020EC
:06028B00B0F8C20080F48F
:03000B000201C728
:0B01C700C0E0C0D075D000C000C00731
:1001D200758CD8758AF00509E50970020508C39483
:1001E20064E5089400402530000FAFA07801EF08C5
:1001F200800103D8FDF5A0800DAFA07801EF088043
:0C0202000123D8FDF5A075080075090067
:09020E00D007D000D0D0D0E032BE
:10025B00E4FDFCC3ED9FEC9E5015E4FBFA0BBB00D9
:0F026B00010AEB64704A70F50DBD00010C80E4D0
:01027A002261
:100168008E0A8F0BE58954F04401F589C28DD28C33
:10017800AE0AAF0BAB07AA06E4C39BFFE49AFE7472
:10018800019400FDE49400FCE4FB7A01F9F8120202
:10019800178F8CAE0AAF0BAB07AA06E4C39BFFE42C
:1001A8009AFE74019400FDE49400FCE4FB7A01F9E2
:0F01B800F8120217AF038F8AD2A9D2AFC2B922B1
:1000E80002027BE493A3F8E493A34003F68001F2B1
:1000F80008DFF48029E493A3F85407240CC8C33319
:10010800C4540F4420C8834004F456800146F6DFE7
:10011800E4800B0102040810204080900003E47E74
:10012800019360BCA3FF543F30E509541FFEE493DC
:10013800A360010ECF54C025E060A840B8E493A3A3
:10014800FAE493A3F8E493A3C8C582C8CAC583CACE
:10015800F0A3C8C582C8CAC583CADFE9DEE780BE86
:0100090000F6
:10021700C2D5E830E70FB2D5E4C39BFBE49AFAE412
:1002270099F9E498F8EC30E717B2D512024D1200AD
:100237004AE4C39BFBE49AFAE499F9E498F880034B
:1002470012004A30D50DE4C39FFFE49EFEE49DFDF6
:04025700E49CFC2205
:10000E0075F008758200EF2FFFEE33FECD33CDCCA9
:10001E0033CCC58233C5829BED9AEC99E58298402C
:10002E000CF582EE9BFEED9AFDEC99FC0FD5F0D609
:10003E00E4CEFBE4CDFAE4CCF9A88222B800C1B933
:10004E000059BA002DEC8BF084CFCECDFCE5F0CB71
:10005E00F97818EF2FFFEE33FEED33FDEC33FCEBAA
:10006E0033FB10D703994004EB99FB0FD8E5E4F965
:10007E00FA227818EF2FFFEE33FEED33FDEC33FC52
:10008E00C933C910D7059BE99A4007EC9BFCE99A46
:10009E00F90FD8E0E4C9FAE4CCFB2275F010EF2F8B
:1000AE00FFEE33FEED33FDCC33CCC833C810D7078B
:1000BE009BEC9AE899400AED9BFDEC9AFCE899F8C6
:0E00CE000FD5F0DAE4CDFBE4CCFAE4C8F92259
:00000001FF
