:0300000002016595
:0C016500787FE4F6D8FD7581310201AC12
:10030200F88CF8F3F95BF9B8FA15FA67FAB9FB0455
:10031200FB4BFB90FBCFFC0CFC44FC79FCACFCDC03
:10032200FD09FD34FD5CFD82FDA6FDC8FDE8FE066B
:10033200FE22FE3DFE56FE6EFE85FE9AFEAEFEC11A
:08034200FED3FEE4FEF4FF030C
:030577000131004F
:10046C00120550E4FD7F0712053B1202508F31E557
:10047C003160F7FB7A007516017D017F01120508CA
:10048C007F587E0212049CAD317F0712053B80DA47
:1001F1008E2F8F30E58954F04401F589C28DD28C60
:10020100AE2FAF30AB07AA06E4C39BFFE49AFE749E
:10021100019400FDE49400FCE4FB7A01F9F8120377
:100221004A8F8CAE2FAF30AB07AA06E4C39BFFE425
:100231009AFE74019400FDE49400FCE4FB7A01F958
:0F024100F812034AAF038F8AD2A9D2AFC2B922F3
:10025000E4F5127E007401A812088005C333CE3382
:10026000CED8F9FFADB0EF5D70397F0AFE1205649C
:100270007E007401A812088005C333CE33CED8F9AE
:10028000FFADB0EF5D701C7E007401A81208800500
:10029000C333CE33CED8F9FFADB0EF5D60E9E512E0
:0E02A00004FF220512E512C3940440A77F005C
:0102AE00222D
:10056400007D027CC7DCFEDDFCEF1F70011E144E13
:0205740070EE27
:010576002262
:06058700C2A58F80D2A77F
:08058D007F027EEFDEFEDFFCC1
:010595002243
:0A059600C2A6120587C2A702058D58
:1004EA00CFCDCFCECCCE1200427C007D0A12004284
:0404FA00ED2430FFBE
:0A04FE00D2A6120587C2A702058DE1
:10052500AE07BE0104ED148006BE0209ED243F446A
:0605350080FF1205962272
:100550007F381205967F0C1205967F061205967F4E
:0405600001020596F9
:0A05A000AC03120525AF040204FEAF
:0604C7008B2C8A2D892E0A
:1004CD00120525E4FDAB2CAA2DA92E8D8275830076
:0C04DD00120003FF60061204FE0D80E90F
:0104E90022F0
:0C0439007F0AEA24FFFDE434FFFC7E0093
:080445008E178F188C198D1A17
:10044D007F017E00E4FBEBC3951AE5196480F87417
:0E045D008098500AAC17AD181200300B80E8E2
:01046B00226E
:040508008A148B15B1
:10050C00120525AA16EAD39400400D120439AC1436
:08051C00AD151204EA1A80ED8E
:0105240022B4
:10038E00120525C3EA64809480400B7F2B1204FE75
:10039E008A208B21800E7F2D1204FEC3E49BF52153
:1003AE00E49AF520AA1FEAD39400400D120439AC4A
:0903BE0020AD211204EA1A80EDC1
:0103C7002213
:0403C8008A248B25D3
:1003CC00120525AA26EAD3940040297F1012043B7B
:1003DC00AC24AD25CFCDCFCECCCE120042EF540FF6
:1003EC00FEC3940AEE5004243080022437FF12041A
:0403FC00FE1A80D194
:0104000022D9
:040401008A298B2A8F
:10040500120525AA2BEAD394004028EA24FFFDE42F
:1004150034FFFC7F027E00120445AC29AD2ACFCD06
:10042500CFCECCCE120042EF54012430FF1204FE91
:030435001A80D258
:0104380022A1
:1002AF00EF1460150470267F80120596E4FD7F2001
:1002BF001204FE0DBD10F780347FC0120596E4FDC9
:1002CF007F201204FE0DBD10F77FC080227F8012A9
:1002DF000596E4FD7F201204FE0DBD10F77FC012BE
:1002EF000596E4FD7F201204FE0DBD10F77F8012EE
:0202FF00059662
:0103010022D9
:0C057A000A083F065B4F666F7D077F6735
:10053B00EFD39407500EEF25E025E0F5A074082DBE
:05054B00F8E6F5802236
:04049C008E128F131A
:1004A000E4F514F515E51325E0FFE51233FEC3E589
:1004B000159FE5149E500FB2A51205AA0515E51566
:0604C00070E3051480DF6B
:0104C6002213
:0505AA00007FE3DFFE0D
:0105AF002229
:1001710002046CE493A3F8E493A34003F68001F234
:1001810008DFF48029E493A3F85407240CC8C3338F
:10019100C4540F4420C8834004F456800146F6DF5E
:1001A100E4800B0102040810204080900577E47E72
:1001B100019360BCA3FF543F30E509541FFEE49353
:1001C100A360010ECF54C025E060A840B8E493A31A
:1001D100FAE493A3F8E493A3C8C582C8CAC583CA45
:1001E100F0A3C8C582C8CAC583CADFE9DEE780BEFD
:010586000074
:10000300BB010CE58229F582E5833AF583E02250B2
:1000130006E92582F8E622BBFE06E92582F8E222FC
:0D002300E58229F582E5833AF583E4932216
:10003000EF8DF0A4A8F0CF8CF0A428CE8DF0A42EE4
:02004000FE229E
:10004200BC000BBE0029EF8DF084FFADF022E4CCA2
:10005200F875F008EF2FFFEE33FEEC33FCEE9DEC6B
:10006200984005FCEE9DFE0FD5F0E9E4CEFD22EDB1
:10007200F8F5F0EE8420D21CFEADF075F008EF2FFB
:10008200FFED33FD4007985006D5F0F222C398FDEC
:050092000FD5F0EA2289
:10034A00C2D5E830E70FB2D5E4C39BFBE49AFAE4DE
:10035A0099F9E498F8EC30E717B2D5120380120045
:10036A00D3E4C39BFBE49AFAE499F9E498F880038E
:10037A001200D330D50DE4C39FFFE49EFEE49DFD39
:04038A00E49CFC22D1
:1000970075F008758200EF2FFFEE33FECD33CDCC20
:1000A70033CCC58233C5829BED9AEC99E5829840A3
:1000B7000CF582EE9BFEED9AFDEC99FC0FD5F0D680
:1000C700E4CEFBE4CDFAE4CCF9A88222B800C1B9AA
:1000D7000059BA002DEC8BF084CFCECDFCE5F0CBE8
:1000E700F97818EF2FFFEE33FEED33FDEC33FCEB21
:1000F70033FB10D703994004EB99FB0FD8E5E4F9DC
:10010700FA227818EF2FFFEE33FEED33FDEC33FCC8
:10011700C933C910D7059BE99A4007EC9BFCE99ABC
:10012700F90FD8E0E4C9FAE4CCFB2275F010EF2F01
:10013700FFEE33FEED33FDCC33CCC833C810D70701
:100147009BEC9AE899400AED9BFDEC9AFCE899F83C
:0E0157000FD5F0DAE4CDFBE4CCFAE4C8F922CF
:00000001FF
