:0904720057540020200052440000
:10000300120422802E12016F8F1FE51F600DFB7AF1
:1000130000750C017D0A7F011203D9E51F24FE60E0
:100023001914602D14606B240370DAE51E151E701D
:1000330002151D750C05AB1E800C051EE51E700216
:10004300051D750C05FBAA1D7D017F011203D980D7
:10005300B4E51DFD7F0112037B7F067E001203F6CC
:10006300AD1EE4FF12037B7F067E001203F67BFFC7
:100073007A0479727D0F7F011203587FE87E0312A1
:1000830003F67BFF7A0479757D0F7F011203580213
:100093000008E4FF1202FF751D008F1E7F0112028C
:1000A300FFEFFEEE421D750C05AB1EAA1D7D017F01
:1000B300011203D97BFF7A0479787D0F7F01120344
:1000C300587FE87E031203F67BFF7A0479757D0F70
:0800D3007F011203580200082E
:1003F600EF1FAC0670011E4C600B007D027CC7DC53
:05040600FEDDFC80EBAF
:01040B0022CE
:10016F00E4F5087E007401A808088005C333CE3378
:10017F00CED8F9FFADB0EF5D70397F05FE1203F6F3
:10018F007E007401A808088005C333CE33CED8F99A
:10019F00FFADB0EF5D701C7E007401A808088005EC
:1001AF00C333CE33CED8F9FFADB0EF5D60E9E508CC
:0E01BF0004FF220508E508C3940440A77F0052
:0101CD00220F
:06043600C2A58F80D2A7D1
:08043C007F027EEFDEFEDFFC13
:010444002295
:0A045E00C2A6120436C2A702043C35
:10039D00CFCDCFCECCCE12011A7C007D0A12011A20
:0403AD00ED2430FF0C
:0A03B100D2A6120436C2A702043CD3
:10040C00AE07BE0104ED148006BE0209ED243F4484
:06041C0080FF12045E22C5
:100422007F3812045E7F0C12045E7F0612045E7F28
:040432000102045E61
:0A046800AC0312040CAF040203B150
:060358008B088A09890AE6
:10035E0012040CE4FDAB08AA09A90A8D827583006C
:0C036E001200DBFF60061203B10D80E9F5
:01037A002260
:0C02CC007F0AEA24FFFDE434FFFC7E0002
:0802D8008E0D8F0E8C0F8D10AE
:1002E0007F017E00E4FBEBC39510E50F6480F8749A
:0E02F0008098500AAC0DAD0E1201080B80E88C
:0102FE0022DD
:0403D9008A0A8B0BF6
:1003DD0012040CAA0CEAD39400400D1202CCAC0A04
:0803ED00AD0B12039D1A80ED17
:0103F50022E5
:1002210012040CC3EA64809480400B7F2B1203B14B
:100231008A168B17800E7F2D1203B1C3E49BF5172D
:10024100E49AF516AA15EAD39400400D1202CCAC3B
:0902510016AD1712039D1A80ED91
:01025A002281
:04025B008A1A8B1B55
:10025F0012040CAA1CEAD3940040297F101202CE7C
:10026F00AC1AAD1BCFCDCFCECCCE12011AEF540F9F
:10027F00FEC3940AEE5004243080022437FF120389
:04028F00B11A80D14F
:010293002248
:040294008A238B240A
:1002980012040CAA25EAD394004028EA24FFFDE4BE
:1002A80034FFFC7F027E001202D8AC23AD24CFCDF0
:1002B800CFCECCCE12011AEF54012430FF1203B175
:0302C8001A80D2C7
:0102CB002210
:1001CE00EF1460150470267F8012045EE4FD7F201C
:1001DE001203B10DBD10F780347FC012045EE4FD32
:1001EE007F201203B10DBD10F77FC080227F8012D9
:1001FE00045EE4FD7F201203B10DBD10F77FC01227
:10020E00045EE4FD7F201203B10DBD10F77F801256
:02021E00045E7C
:0102200022BB
:03000000020452A5
:0C045200787FE4F6D8FD758125020003D8
:10037B008F088D0912047B7FA012032F120445AF47
:10038B000812032F120445AF0912032F1204450262
:02039B00048DCF
:0202FF008F0866
:1003010012047B7FA012032F120445AF0812032FA2
:1003110012044512047B7FA112032F12044512031C
:0D032100BB8F09D20012048412048DAF09B5
:01032E0022AC
:09047B00D2A0D2A1C2A0C2A122AC
:07048D00C2A0D2A1D2A022FF
:02032F00AD0718
:10033100E4FB7E007480A803088006CEA2E713CEFA
:1003410013D8F8FFEDF582EF558224FF92A0D2A1D8
:06035100C2A10BBB08DC99
:010357002283
:1003BB00E4FFD2A0FED2A130A00DA8067480088065
:0D03CB0002C313D8FC4207C2A10EBE08E811
:0103D8002202
:09048400A20092A0D2A1C2A122A3
:0C044500E4FFD2A0D2A130A0010FC2A1A0
:010451002288
:1000DB00BB010CE58229F582E5833AF583E02250DA
:1000EB0006E92582F8E622BBFE06E92582F8E22224
:0D00FB00E58229F582E5833AF583E493223E
:10010800EF8DF0A4A8F0CF8CF0A428CE8DF0A42E0B
:02011800FE22C5
:10011A00BC000BBE0029EF8DF084FFADF022E4CCC9
:10012A00F875F008EF2FFFEE33FEEC33FCEE9DEC92
:10013A00984005FCEE9DFE0FD5F0E9E4CEFD22EDD8
:10014A00F8F5F0EE8420D21CFEADF075F008EF2F22
:10015A00FFED33FD4007985006D5F0F222C398FD13
:05016A000FD5F0EA22B0
:00000001FF
