:1007080031313435313431393139383130005449A7
:100718004D45523A0052554E200050415553004322
:100728004F5252454354004552524F520050415384
:0707380053574F52443A00F1
:10069800011E00010F00010B00010A00030CFF07F7
:0906A80008C101C10002080000B4
:10026900752A01E4F52B1208AE1208691208C212A8
:10027900045F8F1EE51E640D7026B2017F02120510
:10028900933001117BFF7A0779167D017F011207EF
:10029900ECD200800B1208C2C200752A01E4F52BCA
:1002A900300134E51E24F460210460030203ADB279
:1002B900007BFF3000067A07791D80047A077922CE
:1002C9007D0D7F021207EC0203ADE4F50AF50BF58B
:1002D9000F1205E60203ADE51E1424F6500860531B
:1002E9001460740203ADE52BC3940D40030203AD02
:1002F900AD2A052AE51EB40A047F008002AF1EEF6D
:10030900FB7A007530017F0212084CE51EB40A041D
:100319007F008002AF1EEF2430FFAE2B052B741037
:100329002EF8A6077F647E0012079DE52B640D70E9
:1003390073801BE52AD39401400BE52BD39400402D
:1003490004152A152B7B2AAD2A7F021208EB74109B
:10035900252BF8E4F6804D7F0112059378107C0077
:100369007D00AB0CAA0DA90E120220EF7BFF7006CF
:100379007A07792780047A07792F7D017F0212078E
:10038900EC7F647E0012079D7FF47E011208987F3E
:10039900647E0012079D7F011205931207C8752A12
:1003A90001E4F52BE51EC394015003020278E51E12
:1003B900D394104003020278E51EFB7A00753002DF
:0A03C9007D0F7F0112084C0202783C
:1008C2007BFF7A0779357D017F011207EC0207C8A9
:1007C800752C017B2AAD2C7F021208EB052CE52C39
:1007D800D3940D40EE7E007F0E7D007B007A007979
:0407E8001002023DBC
:1005E600E50FFB7A007530027D017F0212084C7B15
:1005F6003A7D037F021208EBE50BFB7A00753002A9
:100606007D047F0212084C7B3A7D067F021208EBBE
:0F061600E50AFB7A007530027D077F0202084C6F
:10077200300027050AE50AC3943C4005E4F50A0562
:100782000BE50BC3943C4005E4F50B050FE50FC3E5
:0B07920094184003E4F50F1205E62266
:03000B0002053BB0
:10053B00C0E0C0F0C083C082C0D075D000C000C086
:0D054B0001C002C003C004C005C006C00707
:10055800758CFC758A170509E50970020508C394AE
:10056800E8E5089403400975080075090012077248
:10057800D007D006D005D004D003D002D001D000D7
:0B058800D0D0D082D083D0F0D0E03281
:0608D200C2A58F80D2A731
:0808D8007F027EEFDEFEDFFC73
:0108E00022F5
:0A08E100C2A61208D2C2A70208D86E
:10082E00CFCDCFCECCCE12004D7C007D0A12004D26
:04083E00ED2430FF76
:0A084200D2A61208D2C2A70208D8FD
:10088200AE07BE0104ED148006BE0209ED243F440A
:0608920080FF1208E122C4
:1008AE007F381208E17F0C1208E17F061208E17F03
:0408BE00010208E14A
:0A08EB00AC03120882AF04020842B9
:0607EC008B2C8A2D892EE2
:1007F200120882E4FDAB2CAA2DA92E8D82758300EE
:0C08020012000EFF60061208420D80E993
:01080E0022C7
:0C073F007F0AEA24FFFDE434FFFC7E008A
:08074B008E318F328C338D34A6
:100753007F017E00E4FBEBC39534E5336480F874DA
:0E0763008098500AAC31AD3212003B0B80E89A
:010771002265
:04084C008A2E8B2F36
:10085000120882AA30EAD39400400D12073FAC2E52
:08086000AD2F12082E1A80EDE5
:01086800226D
:10062500120882C3EA64809480400B7F2B12084233
:100635008A548B55800E7F2D120842C3E49BF555D5
:10064500E49AF554AA53EAD39400400D12073FAC3F
:0906550054AD5512082E1A80ED77
:01065E002279
:04065F008A588B59D1
:10066300120882AA5AEAD3940040297F1012074144
:10067300AC58AD59CFCDCFCECCCE12004DEF540FE9
:10068300FEC3940AEE5004243080022437FF12087C
:04069300421A80D1B6
:010697002240
:0406D0008A5D8B5E56
:1006D400120882AA5FEAD394004028EA24FFFDE4CA
:1006E40034FFFC7F027E0012074BAC5DAD5ECFCDC4
:1006F400CFCECCCE12004DEF54012430FF1208426D
:030704001A80D286
:0107070022CF
:10059300EF1460150470267F801208E1E4FD7F20CC
:1005A3001208420DBD10F780347FC01208E1E4FD4C
:1005B3007F201208420DBD10F77FC080227F80127A
:1005C30008E1E4FD7F201208420DBD10F77FC01241
:1005D30008E1E4FD7F201208420DBD10F77F801271
:0205E30008E12D
:0105E50022F3
:10086900E58954F04401F589C28DD28C758CFC75EB
:090879008A17D2A9D2AFC2B9223C
:04079D008E2C8F2DE2
:1007A100E4F52EF52FE52D25E0FFE52C33FEC3E51D
:1007B1002F9FE52E9E500FB2A5120003052FE52FA6
:0607C10070E3052E80DF4D
:0107C700220F
:05000300007FE3DFFEB9
:0100080022D5
:10089800EF1FAC0670011E4C600B007D027CC7DCAC
:0508A800FEDDFC80EB09
:0108AD002228
:1006B1001035010407100205080F0306090E0A0B85
:0206C1000C0D1E
:10045F00E4F52C7590FFC37403952CFFF874010815
:10046F008002C333D8FCF45290E4F52DE52D24041B
:10047F00FF7E007401A807088005C333CE33CED8A2
:10048F00F9FFAD90EF5D70307F05FE120898E52DF6
:10049F002404FF7E007401A807088005C333CE3300
:1004AF00CED8F9FFAD90EF5D60E4E52C25E025E0B7
:1004BF002435252DF8E6FF22052DE52DC3940440A4
:0C04CF00AB052CE52CC3940440897F0091
:0104DB0022FE
:0C06C3000A453F065B4F666F7D077F67AE
:10080F00EFD394075018EF25E025E0F5A074452DA0
:0F081F00F8E6F5807F017E00120898E4F580224C
:1004DC00E4F51F7E007401A81F088005C333CE33DA
:1004EC00CED8F9FFADB0EF5D70397F05FE120898DC
:1004FC007E007401A81F088005C333CE33CED8F913
:10050C00FFADB0EF5D701C7E007401A81F08800564
:10051C00C333CE33CED8F9FFADB0EF5D60E9E51F44
:0E052C0004FF22051FE51FC3940440A77F00B3
:01053A00229E
:030000000203D325
:0C03D300787FE4F6D8FD75815F02041A03
:10000E00BB010CE58229F582E5833AF583E02250A7
:10001E0006E92582F8E622BBFE06E92582F8E222F1
:0D002E00E58229F582E5833AF583E493220B
:10003B00EF8DF0A4A8F0CF8CF0A428CE8DF0A42ED9
:02004B00FE2293
:10004D00BC000BBE0029EF8DF084FFADF022E4CC97
:10005D00F875F008EF2FFFEE33FEEC33FCEE9DEC60
:10006D00984005FCEE9DFE0FD5F0E9E4CEFD22EDA6
:10007D00F8F5F0EE8420D21CFEADF075F008EF2FF0
:10008D00FFED33FD4007985006D5F0F222C398FDE1
:05009D000FD5F0EA227E
:1000A200E3F5F009E208B5F06D606B80F3E3F5F07B
:1000B20009E608B5F060605E80F387F009E608B5EE
:1000C200F054605280F487F009E208B5F0486046C7
:1000D20080F488828C8387F009E0A3B5F03860361B
:1000E20080F488828C8387F009E493A3B5F02760BB
:1000F2002580F388828C83E3F5F009E0A3B5F0163E
:10010200601480F388828C83E3F5F009E493A3B54D
:10011200F004600280F20201CD808580E7808E804B
:10012200D2803C8015806C807E809B80B5808B80E5
:10013200A1804F8070803A0201D989828A83ECFAC9
:10014200E493F5F0A3C8C582C8CCC583CCE493A3DD
:10015200C8C582C8CCC583CCB5F070606E80E18919
:10016200828A83E493F5F0A3E208B5F05E605C80D6
:10017200F289828A83E0F5F0A3E608B5F04D604B80
:1001820080F389828A83E0F5F0A3E208B5F03C604F
:100192003A80F389828A83E493F5F0A3E608B5F006
:1001A2002A602880F2805389828A83ECFAE493F5EC
:1001B200F0A3C8C582C8CCC583CCE0A3C8C582C899
:1001C200CCC583CCB5F004600280E27FFFB5F002BB
:1001D2000F2240027F012289828A83ECFAE0F5F045
:1001E200A3C8C582C8CCC583CCE0A3C8C582C8CC8D
:1001F200C583CCB5F0D560D380E389828A83ECFADB
:10020200E0F5F0A3C8C582C8CCC583CCE493A3C8EB
:10021200C582C8CCC583CCB5F0B160AF80E288F0AE
:10022200ED2402B4040050A3F582EB2402B40400CE
:0B0232005099232345822390011B7389
:10023D00EF4E6012EF60010EEDBB010B89828A83D8
:10024D00F0A3DFFCDEFA2289F05007F709DFFCA9E5
:0C025D00F022BBFEFCF309DFFCA9F0223C
:1003DF00020269E493A3F8E493A34003F68001F2C9
:1003EF0008DFF48029E493A3F85407240CC8C3331F
:1003FF00C4540F4420C8834004F456800146F6DFEE
:10040F00E4800B0102040810204080900698E47EDF
:10041F00019360BCA3FF543F30E509541FFEE493E2
:10042F00A360010ECF54C025E060A840B8E493A3A9
:10043F00FAE493A3F8E493A3C8C582C8CAC583CAD4
:10044F00F0A3C8C582C8CAC583CADFE9DEE780BE8C
:0106CF00002A
:00000001FF
